:060000000A128A110C280F
:10000800FE00030EF0000A08F1000A128A11E9291D
:100018000A128A110F2883134A30FD000130FE00AE
:10002800E230FF00433084000A128A1187210A1245
:100038008A110A128A11F0210A128A11F9000A1289
:100048008A11F1210A128A11FA000A128A11F22180
:100058000A128A11FB002030840043300A128A11E8
:10006800DA210A128A1183010A128A116F290A12E7
:100078008A1196210A128A1183120313CB002A08C7
:10008800333E84004B08831380002A08333E8400E3
:100098000008031D502851285228912800302B02AF
:1000A800023003192A02031C5A285B287E283308C9
:1000B800CB004B08C6003408CB004B08C7003508F6
:1000C800CB004B08C8000A128A115A210A128A1159
:1000D8000A128A1126210A128A1101308312031387
:1000E800A8000030A900AA01AB013330CB004B08AF
:1000F800C30091280130CB004B08C3070130AA0781
:100108000318AB0A0030AB072B08F3002A08F200EB
:100118000A128A11CD200A128A1108000A128A11BD
:10012800A9210A128A110A128A115A210A128A115D
:100138000A128A1143210A128A110A128A11D0213D
:100148000A128A110A128A11C5210A128A1100306C
:1001580083120313061A0130FB000030851A0130A0
:10016800FA00003089180130F9000030091901300F
:10017800C400AE01AF012430F500E730F400F40B01
:10018800C328F50BC3280A128A115A210A128A11A8
:100198000800EC2883120313891085160915FF2817
:1001A80083120313891485120915FF288312031378
:1001B800891085120915FF288312031389148516DF
:1001C8000911FF2883120313891485160915FF28BE
:1001D8007308003A0319F128E6287208013A03194E
:1001E800CE28033A0319D428013A0319DA28073A22
:1001F8000319E028E6280800F800F601F701172996
:1002080078088400831300080A128A11B9210A1297
:100218008A110130F5007508F8070130F607031850
:10022800F70A0030F7077708803AF5007408803A33
:100238007502031D212973087602031C2429252928
:100248000429080083120313A801A9010530F3004B
:100258000030F40045300A128A1100210A128A116E
:10026800613083120313CA004A08C6000830CA0066
:100278004A08C7000530CA004A08C80008008312A7
:1002880003138C018D01980183160313980105301F
:1002980099004030831603178700903083120313A8
:1002A8009800243083160313980008008312031360
:1002B800981C5F2960296229181218161A08F2007A
:1002C8007208F3001A08F2007208F3001A08F20024
:1002D8007208F30008000A128A1192200A128A1181
:1002E800831203138C1E79297A2974290A128A1118
:1002F8003B200A128A1174290A128A110C287E08D6
:100308008A007F0882000A128A1183210A128A1140
:100318008000840A04087D0603190034FF0A0319C3
:10032800FE0A872983120313981C9B299C299E295E
:1003380018121816181DA129A229A3291A081A0883
:10034800F2007208F30073080800063083160313DE
:1003580086006C30870002308800831603178801F6
:1003680089018312031306120800F200720883122F
:100378000313990083160313981CC329C429BE29A3
:1003880008008316031385128910091183120313B9
:1003980085168914091508008316031381018C0139
:1003A8008B01403081008C018B01080064008001C2
:1003B800840A0406031900340406DB2933340134A3
:1003C8000234133408340534033471088A00700E7B
:0E03D8008300FE0E7E0E090001340134013454
:08400000FF3FFF3FFF3FFF3FC0
:04400E00F320FF3E5E
:00000001FF
